:100000000C94C6010C94EE010C94EE010C94C70EF6
:100010000C94C70E0C94C70E0C94EE010C94EE01D8
:100020000C94EE010C94EE010C94EE010C94EE0194
:100030000C94EE010C94EE010C94EE010C94EE0184
:100040000C94620D0C94EE010C94300D0C940A0D7E
:100050000C94EE010C94EE010C94EE010C94EE0164
:100060000C94AC0D0C94EE0108000000BE922449E3
:10007000123EABAAAA2ABECDCCCC4C3E00000080DA
:10008000BEABAAAAAA3E00000000BF000000803F4D
:100090000000000000084178D3BB4387D1133D190D
:1000A0000E3CC3BD4282AD2B3E68EC8276BED98F3A
:1000B000E1A93E4C80EFFFBE01C4FF7F3F0000007E
:1000C00000004E414E494E495459494E46CDCCCC84
:1000D0003D0AD7233C17B7D13877CC2B329595E61C
:1000E000241FB14F0A000020410000C84200401CFC
:1000F0004620BCBE4CCA1B0E5AAEC59D7400407A49
:1001000010F35A00A0724E18090010A5D4E80000A0
:10011000E87648170000E40B54020000CA9A3B003E
:100120000000E1F505000080969800000040420FB5
:10013000000000A08601000000102700000000E879
:1001400003000000006400000000000A000000003E
:10015000000100000000002C76D888DC674F0823DF
:10016000DFC1DFAE59E1B1B796E5E3E453C63AE645
:1001700051997696E8E6C28426EB898C9B62ED4025
:100180007C6FFCEFBC9C9F40F2BAA56FA5F4900574
:100190005A2AF75C936B6CF9676DC11BFCE0E40DA8
:1001A00047FEF520E6B500D0ED902E03009435779C
:1001B000050080841E080000204E0A000000C80CC4
:1001C000333333330F986E12831141EF8D2114892D
:1001D0003BE65516CFFEE6DB18D1844B381BF77C87
:1001E0001D901DA4BBE424203284725E228100C9CC
:1001F000F124ECA1E53D2753656E736F72206E6F9D
:100200007420636F6E6E65637465640054696D6518
:10021000206F7574206572726F7200436865636B3E
:1002200073756D206572726F7200534D5320736544
:100230006E6420636F6D706C657465003A20536561
:100240006E736F72003A2053656E736F7200000018
:100250000000240027002A0000000008000201001E
:100260000003040700000000000000005265616404
:10027000790041542B434D474C3D22524543205574
:100280004E52454144220041542B434E4D493D318D
:100290002C322C302C302C300041542B434D47460F
:1002A0003D3100436F6E6E65637465642100415497
:1002B0002B435343533D2247534D2200436F6E6EF1
:1002C000656374696E672E2E2E00496E69746961CC
:1002D0006C697A696E672E2E2E0041542B434D4770
:1002E000443D322C34004F4B0041524D0A4652459A
:1002F000450A444154410A52455345540A48454C25
:10030000500A5354415455530A0048454C50004438
:10031000495341524D454400465245450041524DD6
:1003200045440041524D003A2053656E736F720090
:1003300044415441002B434D543A002B4349455608
:100340003A003A2053656E736F720000000000237C
:10035000002600290000000000250028002B0004D2
:10036000040404040404040202020202020303035C
:100370000303030102040810204080010204081056
:100380002001020408102000400F8C1511241FBE0C
:10039000CFEFD8E0DEBFCDBF26E0A2E1B2E001C0E2
:1003A0001D92A231B207E1F712E0A0E0B1E0E6E968
:1003B000FEE302C005900D92A231B107D9F711E01A
:1003C000C5ECD1E004C02197FE010E94241DC43C6D
:1003D000D107C9F70E94F9100C943E1F0C9400003D
:1003E0000895AF92BF92CF92DF92EF92FF920F9358
:1003F0001F93CF93DF936C017B018B01040F151FBB
:10040000EB015E01AE18BF08C017D10759F0699122
:10041000D601ED91FC910190F081E02DC601099586
:10042000892B79F7C501DF91CF911F910F91FF9033
:10043000EF90DF90CF90BF90AF900895FC01538D67
:10044000448D252F30E0842F90E0821B930B5417AE
:1004500010F0CF96089501970895FC01918D828D3B
:10046000981761F0A28DAE0FBF2FB11D5D968C91D4
:10047000928D9F5F9F73928F90E008958FEF9FEF13
:100480000895FC01918D828D981731F0828DE80FCF
:10049000F11D858D90E008958FEF9FEF0895FC0189
:1004A000918D228D892F90E0805C9F4F821B910956
:1004B0008F739927089580E993E00E944F0221E00D
:1004C000892B09F420E0822F089580E090E0892BA9
:1004D00029F00E945B0281110C9400000895FC0138
:1004E000A48DA80FB92FB11DA35ABF4F2C91848D95
:1004F00090E001968F739927848FA689B7892C93F2
:10050000A089B1898C91837080648C93938D848D44
:10051000981306C00288F389E02D80818F7D808347
:100520000895EF92FF920F931F93CF93DF93EC0107
:1005300081E0888F9B8D8C8D98131AC0E889F9898A
:10054000808185FF15C09FB7F894EE89FF8960838D
:10055000E889F98980818370806480839FBF81E00E
:1005600090E0DF91CF911F910F91FF90EF90089550
:10057000F62E0B8D10E00F5F1F4F0F731127E02E2B
:100580008C8D8E110CC00FB607FCFACFE889F98963
:10059000808185FFF5CFCE010E946F02F1CFEB8DF8
:1005A000EC0FFD2FF11DE35AFF4FF0829FB7F89437
:1005B0000B8FEA89FB8980818062CFCFCF93DF9355
:1005C000EC01888D8823B9F0AA89BB89E889F9896B
:1005D0008C9185FD03C0808186FD0DC00FB607FCA0
:1005E000F7CF8C9185FFF2CF808185FFEDCFCE01D3
:1005F0000E946F02E9CFDF91CF910895833081F09F
:1006000028F4813099F08230A9F008958730A9F05C
:100610008830C9F08430B1F4809180008F7D03C0B0
:10062000809180008F7780938000089584B58F77C4
:1006300084BD089584B58F7DFBCF8091B0008F7706
:100640008093B00008958091B0008F7DF9CFCF9353
:10065000DF93282F30E0F901E85AFD4F8491F9012A
:10066000ED58FC4FD491F901E15AFC4FC491CC23D1
:10067000A1F081110E94FE02EC2FF0E0EE0FFF1FAF
:10068000E55BFC4FA591B491EC91ED2381E090E006
:1006900009F480E0DF91CF91089580E090E0FACFF7
:1006A0001F93CF93DF93282F30E0F901E85AFD4FD5
:1006B0008491F901ED58FC4FD491F901E15AFC4FB6
:1006C000C491CC23A9F0162F81110E94FE02EC2FB9
:1006D000F0E0EE0FFF1FEB5AFC4FA591B4918FB7DE
:1006E000F894EC91111108C0D095DE23DC938FBFF4
:1006F000DF91CF911F910895DE2BF8CFCF93DF9339
:1007000090E0FC01ED58FC4F2491815A9C4FFC0174
:1007100084918823C9F090E0880F991FFC01E25B67
:10072000FD4FA591B491FC01EB5AFC4FC591D491BA
:1007300061110DC09FB7F8948C91209582238C9302
:100740008881282328839FBFDF91CF91089562304D
:1007500051F49FB7F8943C91822F809583238C931A
:10076000E8812E2BEFCF8FB7F894EC912E2B2C93A2
:100770008FBFEACF8E3008F08E50877080648093F0
:100780007C0080917A00806480937A0080917A0066
:1007900086FDFCCF809178009091790008953FB755
:1007A000F8948091880390918903A0918A03B09175
:1007B0008B0326B5A89B05C02F3F19F00196A11DFC
:1007C000B11D3FBFBA2FA92F982F8827BC01CD019B
:1007D000620F711D811D911D42E0660F771F881FFA
:1007E000991F4A95D1F708958F929F92AF92BF9229
:1007F000CF92DF92EF92FF921F93CF93DF93182F48
:10080000C62F49015A010E94CF036B017C01D0E041
:10081000812F0E9427038C179D0779F40E94CF0334
:100820006C197D098E099F0986169706A806B906D8
:1008300078F760E070E0CB0106C00E94CF036C192E
:100840007D098E099F09DF91CF911F91FF90EF9055
:10085000DF90CF90BF90AF909F908F9008958F9230
:100860009F92AF92BF92CF92DF92EF92FF926B0175
:100870007C010E94CF034B015C01C114D104E1044F
:10088000F104B9F00E94CF03681979098A099B091C
:10089000683E73408105910580F321E0C21AD108BA
:1008A000E108F10888EE880E83E0981EA11CB11CB7
:1008B000E4CFFF90EF90DF90CF90BF90AF909F90EC
:1008C0008F9008958F929F92AF92BF92CF92DF92B6
:1008D000EF92FF920F931F93CF93DF9300D000D03E
:1008E0001F92CDB7DEB78C0119821A821B821C823F
:1008F0001D8261E0FC0180810E947E0360E0F801BE
:1009000080810E94500362E170E080E090E00E94EC
:100910002F0462E0F80180810E947E0328E230E02B
:1009200040E050E061E0F80180810E94F403672B11
:10093000682B692BA9F48DEFF80182830F900F903B
:100940000F900F900F90DF91CF911F910F91FF901B
:10095000EF90DF90CF90BF90AF909F908F900895D1
:1009600020E530E040E050E060E0F80180810E9446
:10097000F403672B682B692BF1F220E530E040E0AF
:1009800050E061E0F80180810E94F403672B682B3E
:10099000692B89F2F12CE12C22E330E040E050E0B9
:1009A00060E0F80180810E94F40324E630E040E03A
:1009B00050E061E0F80180810E94F403662341F178
:1009C000F70173E0F595E7957A95E1F781E090E01E
:1009D0008C0F9D1FE80FF91F8081880F91E06E3208
:1009E00008F490E0890F80839FEFE91AF90AE8E2A2
:1009F000EE16F10489F669814A81EB80FC80862F2E
:100A0000840F8E0D8F0D9D81981721F08FEF94CF5D
:100A10008EEF92CFF8018181853109F47AC0863159
:100A200009F4AAC08B3009F05EC070E090E080E06D
:100A30000E94DF19F8016787708B818B928B6E2D76
:100A400070E090E080E00E94E1194B015C016F2DA5
:100A5000F7FE4DC06F7770E090E080E00E94E119F2
:100A60002DEC3CEC4CEC5DE30E94401A9B01AC0188
:100A700060E070E080E89FE30E94521BA5019401B2
:100A80000E94531B6B017C01F7FAF094F7F8F09485
:100A9000F801C382D482E582F68220E030E040E1B2
:100AA00051E4C701B6010E94401A20E030E040EA5C
:100AB00050E40E94BF1B20E030E040E052E40E947E
:100AC000531BF801678370878187928723E333E99B
:100AD00048E853E4C701B6010E94531BF80163873D
:100AE000748785879687F801128280E027CF70E0AF
:100AF00090E080E00E94E1192DEC3CEC4CEC5DE3D1
:100B00000E94401AA50194010E94531B6B017C01B5
:100B1000BFCF262F30E0322F2227B901640F711D7D
:100B2000072E000C880B990B0E94E1192DEC3CEC70
:100B30004CEC5DE30E94401AF8016787708B818B53
:100B4000928B6E2D70E0762F662766277F776F0D6C
:100B5000711D072E000C880B990B0E94E1192DECDA
:100B60003CEC4CEC5DEBE7FC04C02DEC3CEC4CECBD
:100B70005DE30E94401ACACF862F90E0982F882705
:100B8000BC01CCCF20913903260F3327331F2132EC
:100B90003105ECF420915D03FC0190E080E024300D
:100BA00069F082E00895A09139032191AC01475E7C
:100BB0005C4FA40FB52FB11D2C930196861798F3A7
:100BC00080913903680F6093390380E0089581E0D4
:100BD000089508958FEF9FEF08958FEF9FEF089589
:100BE0008091120390E09195819591090895CF939A
:100BF000DF93CB01EA01642F0E94C205CE01DF9191
:100C0000CF910895CF93DF931F92CDB7DEB769835D
:100C100061E0CE0101960E94C20581E090E00F9054
:100C2000DF91CF91089520918E0330918F03281783
:100C3000390771F490918C0380918D03981741F0DE
:100C4000E0918C03F0E0EE5EFD4F808190E008952E
:100C50008FEF9FEF0895EF92FF920F931F93CF9323
:100C6000DF93DC015C96ED90FC905D97E114F1045C
:100C700079F481E090E013969C938E93129790E024
:100C800080E0DF91CF911F910F91FF90EF90089539
:100C90005196ED91FC91529750968C915097982FC8
:100CA00090950FB75E962C915E97122F127021FDD2
:100CB0006095F8942081112319F1282B2083E701F6
:100CC0002197F1F728E0462F50E0308160FF1AC0ED
:100CD000382B3083E7012197F1F7BA0175956795B5
:100CE000215089F7112381F08081892380830FBFF0
:100CF0005C968D919C910197F1F781E090E0C1CFD6
:100D00002923DCCF3923E5CF9081892BEFCF2091A8
:100D10008E0330918F032817390739F480918D03A2
:100D200090918C03891B90E0089590E080E00895F5
:100D300020918E0330918F032817390799F49091F1
:100D40008C0380918D03981769F0E0918C03F0E09B
:100D5000EE5EFD4F808190918C039F5F90938C039A
:100D600090E008958FEF9FEF089590E080E0089560
:100D7000FB0101900020E9F73197AF01461B570BAB
:100D8000DC01ED91FC910280F381E02D0994CF9379
:100D9000DF93FC01448155816081718180E993E09A
:100DA0000E94F101EC016AE271E080E993E00E94A7
:100DB000B8068C0F9D1FDF91CF9108950F931F935D
:100DC000CF93DF93EC010E94B8068C016AE271E0D8
:100DD000CE010E94B806800F911FDF91CF911F9125
:100DE0000F910895EF92FF920F931F93CF93DF938C
:100DF0008C017B01D0E0C0E0F701EC0FFD1F649196
:100E0000662361F0D801ED91FC910190F081E02D15
:100E1000C8010995892B11F02196EECF6AE271E0A5
:100E2000C8010E94B8068C0F9D1FDF91CF911F91C2
:100E30000F91FF90EF900895CF93DF93DC0114960C
:100E40002D913C911597232B79F0FB01CD91DC91ED
:100E500060817181CE010E94241F009729F08C1BB4
:100E60009D0BDF91CF9108958FEF9FEFFACF0F93F6
:100E70001F93CF93DF938C01EB0186179707D1F077
:100E8000FC01808191810097E9F068817981611589
:100E90007105B1F0428153812C813D814217530786
:100EA00078F00E941D1F8C819D81F80195838483B9
:100EB0001D821C82C801DF91CF911F910F9108956F
:100EC0000E94C61D88819981F801918380838A815F
:100ED0009B81938382838C819D81958384831982F6
:100EE00018821B821A82E4CFCF93DF93EC018881B2
:100EF0009981009711F00E94C61D198218821D82E7
:100F00001C821B821A82DF91CF910895FC0180819F
:100F10009181009711F00C94C61D08950F931F93B3
:100F2000CF93DF93EC0188819981009759F02A8152
:100F30003B812617370730F081E0DF91CF911F9179
:100F40000F9108958B016F5F7F4F0E944F1E009796
:100F500059F0998388831B830A832C813D81232B3D
:100F600059F7FC011082E8CF80E0E7CFEF92FF92C3
:100F70000F931F93CF93DF93EC017B01CB010E9472
:100F8000F4150097A9F00C811D81080F191FB801F5
:100F9000CE010E948E07882399F0288139818C81A7
:100FA0009D81B701820F931F0E94ED151D830C8355
:100FB000CE01DF91CF911F910F91FF90EF90089597
:100FC000CE010E947407F4CFEF92FF920F931F930C
:100FD000CF93DF936115710541F480E0DF91CF91EC
:100FE0001F910F91FF90EF90089541155105B1F0B9
:100FF0007B01EC010C811D81040F151FB8010E94BB
:101000008E07882351F3288139818C819D81B70116
:10101000820F931F0E941D1F1D830C8381E0DECF72
:10102000CF93DF93EC01FB0101900020E9F73197AA
:10103000AF01461B570B0E94E407811103C0CE018C
:101040000E947407CE01DF91CF910895CF93DF9373
:10105000EC01FB0144815581608171810E94E407AC
:10106000811103C0CE010E947407CE01DF91CF91A0
:101070000895EF92FF920F931F93CF93DF93EC01AC
:101080008B01CB010E94F4157C01BC01CE010E94B2
:101090008E0781110BC0CE010E947407CE01DF9133
:1010A000CF911F910F91FF90EF900895FD82EC82F8
:1010B000B801888199810E94ED15F0CFFC01118261
:1010C000108213821282158214820C943908EF92D6
:1010D000FF920F931F93CF93DF93EC017B018A0163
:1010E000BA010E948E0781110BC0CE010E947407C5
:1010F000CE01DF91CF911F910F91FF90EF90089556
:101100001D830C83B701888199810E941D1FF0CF38
:10111000FB0101900020E9F73197AF01461B570B07
:101120000C9467080F931F93CF93DF93CDB7DEB76F
:1011300062970FB6F894DEBF0FBECDBF8C01CB0116
:10114000F8011182108213821282158214824AE001
:10115000BE016F5F7F4F0E94FD15BE016F5F7F4F25
:10116000C8010E94880862960FB6F894DEBF0FBED1
:10117000CDBFDF91CF911F910F9108950F931F93D2
:10118000CF93DF9300D000D000D0CDB7DEB78C0175
:10119000FC01868D0E94BA03BC01CE0101960E941B
:1011A0009208BE016F5F7F4FC80185960E94370786
:1011B000CE0101960E948607F801678570898189B2
:1011C00092890E942F0426960FB6F894DEBF0FBEB8
:1011D000CDBFDF91CF911F910F9108950F931F9372
:1011E000CF93DF9300D000D000D0CDB7DEB78C0115
:1011F000FC01868D0E942703BC01CE0101960E944E
:101200009208BE016F5F7F4FC80185960E94370725
:10121000CE0101960E948607F80167857089818951
:1012200092890E942F0426960FB6F894DEBF0FBE57
:10123000CDBFDF91CF911F910F910895CF93DF9391
:10124000EC016115710531F00E948808CE01DF9133
:10125000CF9108950E947407F9CFEF92FF920F93F8
:101260001F93CF93DF93CDB7DEB7A1970FB6F89456
:10127000DEBF0FBECDBF7C01CB01BA01F7011182E9
:10128000108213821282158214828E010F5F1F4F0B
:1012900022E044E00E94CB15BC01C7010E941E0958
:1012A000A1960FB6F894DEBF0FBECDBFDF91CF91F0
:1012B0001F910F91FF90EF900895BF92CF92DF9210
:1012C000EF92FF920F931F93CF93DF9300D000D044
:1012D00000D0CDB7DEB78C01FC01B68C84E1C82EFE
:1012E000D12CF12CE12C8B2D0E94BA03E80EF91EB3
:1012F000F1E0CF1AD108B9F7C70164E170E00E94AC
:10130000BB1C9B01770F440B550B60E070E48CE92C
:1013100090E00E94CF1CCA01B90160517742810957
:1013200091090E94E1190E943E1C6B017C0129E594
:1013300037E44CEB53E30E94401AA70196010E9448
:10134000401A23E73FE745E759E30E94531BA701F3
:1013500096010E94401A2BEE3FEF43E95AE30E94A8
:10136000531B9B01AC0160E070E080E89FE30E94AA
:10137000BF1B23E333E948E853E40E94521BAB014F
:10138000BC01CE0101960E942D09BE016F5F7F4F07
:10139000C80185960E943707CE0101960E948607F4
:1013A000F80167857089818992890E942F042696A9
:1013B0000FB6F894DEBF0FBECDBFDF91CF911F9166
:1013C0000F91FF90EF90DF90CF90BF9008950F9313
:1013D0001F93CF93DF93CDB7DEB769970FB6F8941D
:1013E000DEBF0FBECDBF8C0184E089838BE08A8392
:1013F000CE0101960E9462048B818E3FB1F17CF494
:101400006BE471E08D3F61F169960FB6F894DEBF31
:101410000FBECDBFDF91CF911F910F9108958F3FE8
:10142000E9F08111F1CF4C815D816E817F81CE0128
:1014300044960E942D09BE016C5E7F4FC8018596BF
:101440000E943707CE0144960E948607F8016785FF
:101450007089818992890E942F04D6CF6DE271E054
:1014600080E993E00E94DE06CFCF6CE371E0F8CF15
:101470000F931F93CF93DF93CDB7DEB769970FB666
:10148000F894DEBF0FBECDBF8C0184E089838BE072
:101490008A83CE0101960E9462048B818E3FE1F126
:1014A0007CF467EF71E08D3F91F169960FB6F89487
:1014B000DEBF0FBECDBFDF91CF911F910F91089579
:1014C0008F3F19F18111F1CF64EF71E080E090E07E
:1014D0000E942F04488959896A897B89CE014496E4
:1014E0000E942D09BE016C5E7F4FC80185960E9447
:1014F0003707CE0144960E948607F80167857089F8
:10150000818992890E942F04D0CF6BE172E080E93B
:1015100093E00E94F206C9CF6CE072E0F8CFCF935F
:10152000DF93EC01FB018617970749F06081718119
:101530006115710541F0448155810E946708CE0113
:10154000DF91CF9108950E947407F9CFFC011182B9
:10155000108213821282158214820C948F0AFC016D
:10156000118210821382128215821482FB01019073
:101570000020E9F73197AF01461B570B0C94670821
:101580002F923F924F925F926F927F928F929F9293
:10159000AF92BF92CF92EF92FF920F931F93CF9390
:1015A000DF9300D000D000D0CDB7DEB73C012B01D7
:1015B0005A8349831901EB82FC820D831E836CE2FE
:1015C00071E00E94AF0A8301095F1F4F6CE271E076
:1015D000C8010E94AF0A6CE271E0C30185960E94C7
:1015E000AF0AB201C3010E941E09D30116961C92D4
:1015F0001697E981FA811E96FC93EE931D97B1012F
:10160000C8010E941E098B819C81AD81BE81F301BE
:101610008787908BA18BB28B838A948AA58AB68A9E
:10162000878A908EA18EB28E138E148E8A8D858FAE
:10163000C68E60E08C2D0E947E03D30190961C9292
:101640001E925F9792961C921E92919794961C926E
:101650001E92939726960FB6F894DEBF0FBECDBFAD
:10166000DF91CF911F910F91FF90EF90CF90BF909E
:10167000AF909F908F907F906F905F904F903F9032
:101680002F900895EF92FF920F931F93CF93DF93C4
:1016900000D000D000D0CDB7DEB78C017B0160E672
:1016A00071E0CE0101960E94AF0AB701CE0101960A
:1016B0000E94260868E671E00E9410080E94C70692
:1016C000CE0101960E94860764EF71E080E090E011
:1016D0000E942F04F801448155816081718180E965
:1016E00093E00E94F10164EF71E080E090E00E94DD
:1016F0002F046AE272E080E993E00E94F20664EF50
:1017000071E080E090E00E942F0426960FB6F894D6
:10171000DEBF0FBECDBFDF91CF911F910F91FF9024
:10172000EF900895AF92BF92CF92DF92EF92FF9227
:101730000F931F93CF93DF93CDB7DEB762970FB6AA
:10174000F894DEBF0FBECDBF8C0166E076E0CE011F
:101750000D960E94A60A680127E0C20ED11C58010E
:1017600035E2A30EB11CF801668186E0E82E6E9D7D
:10177000B001112460537A4FCE0101960E94A60A4F
:1017800065E472E0CE0101960E94B607B8010E949E
:1017900026086FE671E00E941008B5010E94260835
:1017A000B6010E9426086BE271E00E941008BC019D
:1017B000CE0107960E94A60ABE01635F7F4FCE014D
:1017C00007960E94420BCE0107960E948607CE0123
:1017D00001960E948607CE010D960E948607F801A9
:1017E00086818E9DC00111249C0120533A4F7901BE
:1017F0006AE671E0CE0101960E94AF0AB701CE0100
:1018000001960E9426086CE372E00E94B607B801B8
:101810000E9426086FE671E00E941008B5010E9440
:101820002608B6010E9426086BE271E00E941008AB
:101830000E94C706CE0101960E94860762960FB6E7
:10184000F894DEBF0FBECDBFDF91CF911F910F91F6
:10185000FF90EF90DF90CF90BF90AF9008951F93CF
:10186000CF93DF9385ED8093BC0080911503909119
:101870001603A0911703B09118030796A11DB11D7F
:1018800023E0B695A795979587952A95D1F720914E
:10189000BC0024FD03C010925D0352C040911503AB
:1018A000509116036091170370911803452B462B36
:1018B000472B69F30097A105B10541F025E32A956F
:1018C000F1F700000197A109B109E1CF809114035C
:1018D000C1E0C0931303882399F1D091B80010910F
:1018E000BA008091BC008A7B8093BC0060E082E1FA
:1018F0000E94500360E083E10E94500310925D0358
:10190000C0935F0310925E0361E082E10E94500386
:1019100061E083E10E9450038091B9008E7F809343
:10192000B9008091B9008D7F8093B90088E48093DD
:10193000B80085E48093BC001093BA00D093B8003F
:10194000DF91CF911F910895CF92DF92EF92FF9296
:10195000CF93DF93DC019396ED91FC91309709F4DE
:1019600052C0EC0109958D8D882309F44CC08C8DF3
:10197000811120C0CB88DC88ED88FE888DA19EA1D6
:1019800020E030E0A901009721F00E94E9159B01B9
:10199000AC01C701B6010E94DA1918168CF181E07A
:1019A0008C8FE9A1FAA1309711F0CE0109958D8DA8
:1019B000882349F18B8D811126C0CF88D88CE98C82
:1019C000FA8C8DA19EA120E030E0A901009721F0C2
:1019D0000E94E9159B01AC01C701B6010E94311CB0
:1019E00087FD10C081E08B8FEF8DF8A1309759F003
:1019F000CE01DF91CF91FF90EF90DF90CF900994CF
:101A00001C8ED5CF1B8EDF91CF91FF90EF90DF9092
:101A1000CF9008951F920F920FB60F9211242F931B
:101A20003F934F935F936F937F938F939F93AF9366
:101A3000BF93EF93FF9380E993E00E946F02FF91C1
:101A4000EF91BF91AF919F918F917F916F915F9136
:101A50004F913F912F910F900FBE0F901F901895AF
:101A60001F920F920FB60F9211242F938F939F9373
:101A7000EF93FF93E091A003F091A1038081E091A7
:101A8000A603F091A70382FD1BC090818091A9035A
:101A90008F5F8F732091AA03821741F0E091A90311
:101AA000F0E0E057FC4F958F8093A903FF91EF91F1
:101AB0009F918F912F910F900FBE0F901F901895AF
:101AC0008081F4CF1F920F920FB60F9211242F93A3
:101AD0003F938F939F93AF93BF9380918403909193
:101AE0008503A0918603B09187033091830323E09F
:101AF000230F2D3758F50196A11DB11D20938303A7
:101B00008093840390938503A0938603B093870307
:101B10008091880390918903A0918A03B0918B03EF
:101B20000196A11DB11D8093880390938903A09312
:101B30008A03B0938B03BF91AF919F918F913F9197
:101B40002F910F900FBE0F901F90189526E8230F2E
:101B50000296A11DB11DD2CF1F920F920FB60F9208
:101B600011242F933F934F935F936F937F938F93A2
:101B70009F93AF93BF93EF93FF938091B900887FBA
:101B8000803609F44AC0F0F5883209F4A5C018F58A
:101B9000803109F499C0B8F4882309F4F5C088307D
:101BA00009F492C0FF91EF91BF91AF919F918F91F6
:101BB0007F916F915F914F913F912F910F900FBE49
:101BC0000F901F901895883109F486C0803251F724
:101BD00080935C0314C0803409F49BC040F48033CC
:101BE000B9F38833F9F680935C0385ECAEC0803599
:101BF00009F483C0883509F494C0883499F60E94AA
:101C00002F0CD0CF883909F48AC038F5883729F0ED
:101C100050F4883611F0803729F683E080935D0315
:101C200010925B0355C0883809F479C0803919F0E7
:101C3000803809F0B7CF80915B03803208F06FC025
:101C4000E0915B0381E08E0F80935B038091BB008A
:101C5000F0E0E55CFC4F80833BC0803B39F0D0F482
:101C6000803A09F477C0883A09F09CCF84E08093E9
:101C70005D0310923A0310923903F0E0E0E0099519
:101C80008091390381110FC081E080933903109254
:101C9000190309C0803C09F4A8CF883C09F4A5CFFA
:101CA000883B09F07FCFE0913A0381E08E0F80936B
:101CB0003A03F0E0E75EFC4F80818093BB00909197
:101CC0003A038091390329C0809182038093BB003D
:101CD00085EC8093BC0066CF909181038091800356
:101CE000981758F5E091810381E08E0F809381036E
:101CF000F0E0E05AFC4F8081E9CFE091810381E080
:101D00008E0F809381038091BB00F0E0E05AFC4F7E
:101D1000808390918103809180039817C8F285E8B1
:101D2000D8CFE091810381E08E0F80938103809171
:101D3000BB00F0E0E05AFC4F808380915F0381118B
:101D40005ECF81E080935E0384EA8093BC001092B2
:101D50005D0328CF85EC8093BC0010925D038091D9
:101D60005B03803230F4E0915B03F0E0E55CFC4F14
:101D7000108260915B0370E08BE393E0F0E0E0E0C1
:101D8000099510925B030ECF10925C0338CF1F921F
:101D90000F920FB60F9211242F933F934F935F939F
:101DA0006F937F938F939F93AF93BF93CF93DF9363
:101DB000EF93FF93E0918E03F0918F03309749F0FA
:101DC000A685B7858585968D91FF16C09C91892340
:101DD000B1F4FF91EF91DF91CF91BF91AF919F91BE
:101DE0008F917F916F915F914F913F912F910F90C4
:101DF0000FBE0F901F9018959C91892351F7A389CE
:101E0000B4899C918589809589238C93868997894B
:101E10000197F1F7608D718DC685D785558598E05E
:101E200080E0DB011197F1F7282F30E035952795F9
:101E3000822F4881452309F08068915091F7968D53
:101E400091FD809590918D039F5F20918C03921757
:101E500099F0A0918D03B0E0AE5EBD4F8C9390934E
:101E60008D03828D938D0197F1F7A389B4898C91AD
:101E70009589892B8C93ADCF868D8160868FF1CF2C
:101E80008F929F92AF92BF92CF92DF92EF92FF928A
:101E90000F931F93CF93109293031092920348EEE7
:101EA000C42E43E0D42EE12CF12CC0929403D092A6
:101EB0009503E0929603F09297038AE091E0909365
:101EC00091038093900385EC90E090939D03809321
:101ED0009C0384EC90E090939F0380939E0380EC9E
:101EE00090E09093A1038093A00381EC90E0909305
:101EF000A3038093A20382EC90E09093A5038093C8
:101F0000A40386EC90E09093A7038093A60310921D
:101F1000A9031092AA031092AB031092AC0362E7DC
:101F200071E086E096E00E94AF0A6FE771E080ED15
:101F300095E00E94AF0A64E871E086ED95E00E94AA
:101F4000AF0A6CE871E08CED95E00E94AF0A64E99D
:101F500071E082EE95E00E94AF0A6CE971E088EED4
:101F600095E00E94AF0A62EA71E08EEE95E00E9471
:101F7000AF0A6BEA71E084EF95E00E94AF0A63EB71
:101F800071E08AEF95E00E94AF0A6FEB71E080E0AC
:101F900096E00E94AF0A1092B4051092B305C09269
:101FA000B505D092B605E092B705F092B8058CE180
:101FB00091E09093B2058093B1051092C8051092FC
:101FC000C7051092CA051092C9051092CC0510924F
:101FD000CB051092CE051092CD056091CF056E7F96
:101FE0006D7F6093CF056695617081E0682788E01A
:101FF0000E94500361E088E00E947E03EBE7F3E07B
:10200000E491E093C105E7E6F3E0E491F0E0EE0F40
:10201000FF1FEB5AFC4F859194919093C3058093D9
:10202000C20560E087E00E947E038091CF0581FDBC
:1020300004C061E087E00E94500387E08093BD0503
:10204000EAE7F3E0E491E093BE05E6E6F3E0E4912D
:10205000F0E0EE0FFF1FE55BFC4F859194919093AC
:10206000C0058093BF05C091B005CF93812C912C02
:102070009AEFA92E94E4B92E2EE0C22EE12CF12C79
:1020800087012CE231E041E050E067EC71E08DE245
:1020900094E00E94C00ACF933FE0C32E2CE231E0CF
:1020A00041E050E06EEC71E088E594E00E94C00AE7
:1020B000C1E0CF93812C912C40EFA42E41E4B42EAB
:1020C00050E1C52E24ED31E041E050E066ED71E0D5
:1020D00083E894E00E94C00ACF93812C912C60E8A1
:1020E000A62E64E4B62E71E1C72E2CE231E041E069
:1020F00050E06CED71E08EEA94E00E94C00ACF934C
:10210000812CE0E89E2EE4E5AE2EE4E4BE2EF2E162
:10211000CF2E24EE31E041E050E067EE71E089ED32
:1021200094E00E94C00ACF93812C912CAFE2AA2E9A
:10213000A4E4BA2EB3E1CB2E2CE231E041E050E032
:102140006EEE71E084E095E00E94C00ACF93812C8E
:10215000912CA12C12E4B12E04E0C02E14EFE12E3C
:10216000FF24F39400E010E024ED31E043E050E080
:1021700064EF71E08FE295E00E94C00ACF93812C5A
:10218000912C90EAA92E92E4B92E29EF31E042E099
:1021900050E06BEF71E08AE595E00E94C00ACF93B2
:1021A000812C912C20E8A22E2FE3B22E32E0C32EF8
:1021B000E12CF12C87012CE231E050E040E065E0B9
:1021C00072E085E895E00E94C00A8DB79EB7099637
:1021D0000FB6F8949EBF0FBE8DBFCF911F910F9188
:1021E000FF90EF90DF90CF90BF90AF909F908F9037
:1021F0000895CF93DF93CDB7DEB768970FB6F89405
:10220000DEBF0FBECDBF789484B5826084BD84B537
:10221000816084BD85B5826085BD85B5816085BDE1
:1022200080916E00816080936E0010928100809199
:102230008100826080938100809181008160809321
:102240008100809180008160809380008091B10046
:1022500084608093B1008091B00081608093B00071
:1022600080917A00846080937A0080917A00826005
:1022700080937A0080917A00816080937A008091C7
:102280007A00806880937A001092C100E091A003E8
:10229000F091A10382E08083E0919C03F0919D0383
:1022A0001082E0919E03F0919F038FEC8083109247
:1022B000A803E091A403F091A50386E08083E09158
:1022C000A203F091A303808180618083E091A20347
:1022D000F091A303808188608083E091A203F09154
:1022E000A303808180688083E091A203F091A3031F
:1022F00080818F7D808361E089E00E947E0360E0C1
:1023000089E00E94500368EE73E080E090E00E9454
:102310002F0461E089E00E94500360ED77E080E0E7
:1023200090E00E942F0460E089E00E94500368EB77
:102330007BE080E090E00E942F041092CC05109288
:10234000CB051092CA051092C9051092C8051092CB
:10235000C7058DE991E09093CE058093CD059091CE
:10236000BD05963108F047C02DEB30E03093C8052D
:102370002093C7052BE931E03093CA052093C905A6
:102380002CE231E03093CC052093CB0520916800FE
:1023900084E0983048F031E09E3008F430E081E08D
:1023A00001C0880F3A95EAF7822B809368002DE6EA
:1023B00030E0983050F02BE630E09E3030F02CE6E4
:1023C00030E0963110F030E020E03093C5052093E6
:1023D000C405292F30E0983008F057C081E001C0D3
:1023E000880F9A95EAF78093C6058091CD05909164
:1023F000CE050197F1F78091CB059091CC05892B03
:1024000049F1E0918E03F0918F0385E0E13BF807FD
:1024100009F1309739F0A389B4899C918589809519
:1024200089238C938091CF058E7F8093CF05109266
:102430008D0310928C0381EB95E090938F03809332
:102440008E03E091C405F091C50580819091C60589
:10245000892B80836AEC72E080E993E00E94F206A7
:1024600081EB95E00E948706892BE1F46CE072E035
:1024700081EB95E00E94DE0668EE73E080E090E07C
:102480000E942F046CEB72E0E7CF9E3040F428509E
:10249000310981E001C0880F2A95EAF7A4CF2E50B8
:1024A0003109F7CF6EEA72E081EB95E00E94F20607
:1024B00068EE73E080E090E00E942F0463EA72E02F
:1024C00080E993E00E94F20669E972E081EB95E011
:1024D0000E94F20668EE73E080E090E00E942F0414
:1024E00067E872E081EB95E00E94F20668EE73E027
:1024F00080E090E00E942F0462E772E081EB95E0BB
:102500000E94F20668EB7BE080E090E00E942F04DE
:1025100066E076E0CE0101960E94A60A6CE672E0C3
:10252000CE0107960E945E08BE016F5F7F4FCE010D
:1025300007960E94420BCE0107960E948607CE01A5
:1025400001960E9486078EEB98E090935104809349
:10255000500490937C0480937B042DE539E0309304
:10256000A7042093A6049093D2048093D10490935F
:10257000FD048093FC04909328058093270587EE43
:1025800099E0909353058093520588E39AE09093E5
:102590007E0580937D058EEE98E09093A90580934B
:1025A000A80582E99BE090934F0480934E0490939A
:1025B0007A04809379049093A5048093A404909363
:1025C000D0048093CF049093FB048093FA049093FB
:1025D000260580932505909351058093500590938F
:1025E0007C0580937B059093A7058093A605412CDD
:1025F000512C8AEF682E84E4782E812C912C98E45B
:10260000A92E93E4B92E0DE214E07801312C212C8F
:10261000C7010E94A40CF701C680F6E0CF9E6001BE
:102620001124C60180539A4F6C01B101CE01079667
:102630000E949208BE01695F7F4FCE0101960E9401
:10264000A60A6FE072E0CE0101960E941008B60162
:102650000E94260862E473E00E94B607B7010E9458
:1026600026086FE671E00E941008B7016B5D7F4F8E
:102670000E942608B701695F7F4F0E9426080E94CA
:10268000C706CE0101960E948607CE0107960E94DA
:10269000860768EE73E080E090E00E942F049FEFD1
:1026A000291A390AEBE2EE0EF11CF9E02F1631047B
:1026B00009F0AECF6CE271E0CE0143960E94AF0A02
:1026C0006CE271E0CE010D960E94AF0A81EB95E0BD
:1026D0000E948706892B09F40AC26AE070E080E054
:1026E00090E00E942F0481EB95E00E9487067C0118
:1026F000892B81F081EB95E00E94980689831A82EC
:1027000041E050E0BE016F5F7F4FCE0143960E94D3
:10271000E407E3CF64E670E080E090E00E942F04DD
:10272000CE0143960E94C706CB88DC88C114D10431
:1027300071F0F60181916F01882349F0082E000C99
:10274000990B0E940C1FF60131978083F2CF6BE347
:1027500073E0CE0101960E945E08BE016F5F7F4F5D
:10276000CE0143960E941C07D12C97FD1FC065E344
:1027700073E0CE0107960E945E08BE01695F7F4F3D
:10278000CE0143960E941C07D12C97FD0BC066E03A
:1027900076E0CE0143960E941C079095D92EDD1C51
:1027A000DD24DD1CCE0107960E948607CE0101962E
:1027B0000E948607DD2009F46DC160E373E0CE015D
:1027C00001960E945E08BE016F5F7F4FCE01439667
:1027D0000E941C076C01CE0101960E948607D7FC5F
:1027E00074C0C8010E94A40CF801C680F6E0CF9E18
:1027F00060011124C60180539A4F6C01B701CE01CC
:1028000007960E949208BE01695F7F4FCE01019634
:102810000E94A60A6FE072E0CE0101960E941008A5
:10282000B6010E94260867E273E00E94B607B8016D
:102830000E9426086FE671E00E941008B8016B5DE7
:102840007F4F0E942608B801695F7F4F0E942608CB
:10285000BC01CE010D960E948F0ACE0101960E9406
:102860008607CE0107960E948607CE010D960E942C
:10287000C70666E076E0CE0101960E94A60ABE0178
:10288000635F7F4FCE0107960E94A60ABE016F5F6D
:102890007F4FCE0107960E94420BCE0107960E9401
:1028A0008607CE0101960E94860768EE73E080E0FD
:1028B00090E00E942F049FEFE91AF90A055D1F4F6F
:1028C000E9E0EE16F10409F08CCF63E273E0CE018B
:1028D00001960E945E08BE016F5F7F4FCE01439656
:1028E0000E941C078C01CE0101960E94860717FDED
:1028F0003FC0F1E0F093B005809240049092410413
:10290000A0924204B092430480926B0490926C04B3
:10291000A0926D04B0926E046DE173E0CE010D964D
:102920000E943908CE010D960E94C70666E076E047
:10293000CE0101960E94A60ABE01635F7F4FCE01C1
:1029400007960E94A60ABE016F5F7F4FCE010796D1
:102950000E94420BCE0107960E948607CE01019687
:102960000E94860768EE73E080E090E00E942F04EA
:1029700068E173E0CE0101960E945E08BE016F5FC0
:102980007F4FCE0143960E941C078C01CE01019619
:102990000E94860717FD3EC01092B0054092400489
:1029A00050924104609242047092430440926B043E
:1029B00050926C0460926D0470926E046FE073E04C
:1029C000CE010D960E943908CE010D960E94C706D1
:1029D00066E076E0CE0101960E94A60ABE01635F22
:1029E0007F4FCE0107960E94A60ABE016F5F7F4F00
:1029F000CE0107960E94420BCE0107960E948607E1
:102A0000CE0101960E94860768EE73E080E090E0B8
:102A10000E942F046AE073E0CE0101960E945E08D6
:102A2000BE016F5F7F4FCE0143960E941C078C0151
:102A3000CE0101960E94860717FD2CC069EE72E058
:102A4000CE010D960E943908CE010D960E94C70650
:102A500066E076E0CE0101960E94A60ABE01635FA1
:102A60007F4FCE0107960E94A60ABE016F5F7F4F7F
:102A7000CE0107960E94420BCE0107960E94860760
:102A8000CE0101960E94860768EE73E080E090E038
:102A90000E942F0462E370E080E090E00E942F0427
:102AA00066EE72E0CE0101960E945E08BE016F5F85
:102AB0007F4FCE0143960E941C078C01CE010196E8
:102AC0000E9486070F3F1F4F61F46AED72E081EBB1
:102AD00095E00E94F20668EE73E080E090E00E94CC
:102AE0002F046CE271E0CE0143960E948808CE016B
:102AF0000D960E948607CE0143960E948607E0E06D
:102B0000F0E0EF2B09F47FCD0E945B02882309F4EB
:102B10007ACD0E94000077CDCF93DF93C0EBD5E054
:102B2000AB97CE0185960E948607CE0107960E943C
:102B30008607CE010E94860724E0CD32D20781F7B6
:102B40008CE191E09093B2058093B10580918E0362
:102B500090918F03815B954071F4E091C405F091F1
:102B6000C50590818091C605809589238083109248
:102B70008F0310928E03C6E0D6E02697CE010E9406
:102B8000860785E0C03DD807C1F786E096E0DF9173
:102B9000CF910C948607EF920F931F93CF93DF93FF
:102BA000E80134E047FD34E1042E000C550B57FFDB
:102BB00003C0519541955109E32E022F242FAE01F8
:102BC0000E942216CE01DF91CF911F910F91EF90BD
:102BD0000895662777270C948117FB01DC01059087
:102BE0000D920020E1F70895FC0105900020E9F71F
:102BF000809590958E0F9F1F0895BB274A3031F422
:102C0000992322F4BDE2909581959F4F0C9409166B
:102C1000BB27FB015527AA27880F991FAA1FA417B6
:102C200010F0A41B83955051B9F7A05DAA3308F0AA
:102C3000A95DA193009779F7B111B1931192CB01DE
:102C40000C94CA19A9E0B0E0E8E2F6E10C94121B7A
:102C50006A01F22EB02E102FFBE3AF2EA01608F45F
:102C60001BE31F5F012F27E0AE014F5F5F4F0E9404
:102C7000D118BC018981982F9970913009F43FC017
:102C80009BE2E1FC04C09E2D9170E0FC3AC05E2DF9
:102C90005071E82FE87083FF46C084E0911101C0B5
:102CA00083E0EF2DE81B8F1508F0E0E0D6018E2FB2
:102CB00020E2552351F1992329F0D6019C93C601B6
:102CC00001966C0196012D5F3F4FE2FE24C08EE419
:102CD000D6018C9391E411969C93119712968C9344
:102CE000D9018E2F90E281111BC0E20FF32FF11D4D
:102CF00010828EEF9FEF2996ECE00C942E1B9DE244
:102D0000C6CF90E2C4CF2D9381508111FCCFCE0E5F
:102D1000D11CE0E0D0CF8EE6D6018C9391E6DBCFDC
:102D20009D938150E0CF482F447082FF3DC084E0E6
:102D3000911101C083E08F1510F4EF2DE81BD6012F
:102D40008E2F20E2552309F1992329F0D6019C9377
:102D5000C60101966C0196012D5F3F4FE2FE1BC03C
:102D600089E4D6018C938EE411968C93119786E4B6
:102D700012968C93D9018E2F90E2882309F4B5CF57
:102D80009D938150FACF2D9381508111FCCFCE0EAF
:102D9000D11CE0E0D9CF89E6D6018C938EE611965E
:102DA0008C93119786E6E4CF9B0177FF02C030E059
:102DB00020E0A1E0B0E0911102C0B0E0A0E0F90194
:102DC0003196AE0FBF1F8B2C912CBB2009F461C034
:102DD0005401EFEFAE1ABE0AAA0DBB1DFA161B0670
:102DE00019F014F04F2D4A1B511188C0E3FC59C053
:102DF0007601A42FB0E2A1114FC0C40ED11C9923BB
:102E000009F45BC040E0D6011196F60190836D0194
:102E1000552309F448C0012F060F9A81582F50718D
:102E200084FF03C0913309F4015010160CF047C021
:102E3000093008F008E0EEE2FE2E5B01A01AB108AE
:102E400085019194819491082F3F320729F4D6018E
:102E5000FC92F60131966F016217730794F1021725
:102E600013077CF5DB01A21BB30BAA24A394B12C9E
:102E7000AC0EBD1EAA0DBB1D11968C9121503109BF
:102E8000D601119628153905F4F0F60180836D01FD
:102E9000DBCFB12CA12CA0CFF701B1937F01A150C2
:102EA000AACF9111B0CFD601942F50E302C05D9309
:102EB00091509111FCCFC40ED11C40E0ACCF01E089
:102EC000BACF80E3DBCF6217730731F4963388F40F
:102ED000953311F4552369F0F6018083FD01842FA9
:102EE00090E2811108C0A40FB11D1C9290E080E017
:102EF00002CF81E3F1CF91938150F3CF911183CF32
:102F00008ACFB0E0A0E0E7E8F7E10C94121B5C0187
:102F10007B016115710519F0DB018D939C9385018F
:102F20000F5F1F4FF501D0818D2F90E00E94A919EE
:102F30006C01892BB9F5DD32B9F50F5F1F4FD50153
:102F40001196DC91C1E05801F1E0AF1AB10843E0FD
:102F500050E06AEC70E0C5010E94B219892B69F556
:102F6000680182E0C80ED11C45E050E065EC70E0DD
:102F7000C6010E94B219892B21F4680197E0C90E9D
:102F8000D11CE114F10419F0D701CD92DC9260E07C
:102F900070E080E89FEFC111FFC060E070E080E862
:102FA0009FE7FAC05801BBCFDB3229F485010E5FE1
:102FB0001F4FF501D181C0E0C6CF43E050E062EC85
:102FC00070E0C5010E94B219892BE9F0F80110E008
:102FD00000E020E030E0A9015F01B0ED8B2E8D0E06
:102FE00089E08815C8F19C2E689491F88C2F887020
:102FF000C2FF16C0811102C00F5F1F4F3196D5016D
:10300000DC91C92DE9CFE114F10429F00E5F1F4FC7
:10301000F7011183008360E070E080EC9FE7BCC0A3
:10302000882311F001501109A5E0B0E00E94011BB6
:103030009B01AC01220F331F441F551F280D311D6A
:10304000411D511D283999E93907490799E1590767
:10305000A8F2C6609C2ED2CFAEEF8A1206C0C3FD86
:103060003CC09C2E689493F8C9CFDF7DD534A9F578
:1030700080818D3239F4C061DF011296818162E076
:1030800070E006C0DF018B32C1F3119661E070E0A1
:1030900080535D01A61AB70A8A30F8F4E0E8CE162C
:1030A000ECE0DE065CF4B601660F771F660F771F53
:1030B000C60ED71ECC0CDD1CC80ED11C5D01FFEF67
:1030C000AF1ABF0A8C9180538A30A8F1C4FF03C0A5
:1030D000D194C194D1080C0D1D1DC1FF09C0E1148C
:1030E000F10431F081E0A81AB108D701AD92BC9289
:1030F000CA01B9010E94DF19C370C33009F49058A6
:103100004B015C0120E030E0A9010E94DA1988231C
:1031100009F440C0C9EFD0E017FF05C01195019533
:103120001109C1EED0E06E01B8E1CB1AD10880E2FE
:10313000E82EF12C0FC0D501B1CFFE0125913591BC
:10314000459154910E191F09C501B4010E94401AFE
:103150004B015C01D501C4010E151F0574F72497BE
:10316000F594E794CC16DD06A9F78A2F880F8B2FEC
:10317000881F8F3F49F020E030E0A901C501B4016C
:103180000E94DA19811106C082E290E090930D0648
:1031900080930C06C501B401CDB7DEB7ECE00C940A
:1031A0002E1B283008F027E03327DA01990F311D54
:1031B00087FD916000966105710539F432602E5FDC
:1031C0003D9330E32A95E1F708959F3F30F0803832
:1031D0007105610509F03C5F3C5F3D93913008F05B
:1031E0008068911DDF93CF931F930F93FF92EF920F
:1031F000192F987F9695E92F96959695E90FFF27B9
:10320000E95AFE4F99273327EE24FF24A701E7014F
:1032100005900894079428F4360FE71EF81E491FFE
:10322000511D660F771F881F991F0694A1F70590FF
:10323000079428F4E70EF81E491F561FC11D770F8B
:10324000881F991F661F0694A1F70590079428F41C
:10325000F80E491F561FC71FD11D880F991F661FE3
:10326000771F0694A1F70590079420F4490F561F85
:10327000C71FD81F990F661F771F881F0694A9F7CD
:1032800084911095177041F0D695C795579547953D
:10329000F794E7941A95C1F7EDEFF0E06894159074
:1032A000159135916591959105907FE27395E1189F
:1032B000F10A430B560BC90BD009C0F7E10CF11E04
:1032C000431F561FC91FD01D7EF4703311F48A9519
:1032D000E6CFE894015030F0080F0AF400270217F7
:1032E00008F4202F2395022F7A3328F079E37D9379
:1032F0002A95E9F710C07D932A9589F6069497954B
:103300006795379517951794E118F10A430B560BFB
:10331000C90BD00998F023957E9173957A3308F004
:1033200070E37C932013B8F77E9170617D9330F049
:10333000839571E37D9370E32A95E1F71124EF9073
:10334000FF900F911F91CF91DF91992787FD909565
:10335000089591110C94AD1A803219F0895085505E
:10336000C8F70895FB01DC014150504088F08D9171
:1033700081341CF08B350CF4805E659161341CF057
:103380006B350CF4605E861B611171F3990B089527
:10339000881BFCCFDC01FC01672F71917723E1F7DB
:1033A000329704C07C916D9370836291AE17BF0712
:1033B000C8F308950E941C1A08F481E00895E89467
:1033C00009C097FB3EF490958095709561957F4F6D
:1033D0008F4F9F4F9923A9F0F92F96E9BB2793951B
:1033E000F695879577956795B795F111F8CFFAF42B
:1033F000BB0F11F460FF1BC06F5F7F4F8F4F9F4F5C
:1034000016C0882311F096E911C0772321F09EE8B9
:10341000872F762F05C0662371F096E8862F70E01F
:1034200060E02AF09A95660F771F881FDAF7880FF9
:103430009695879597F90895990F0008550FAA0B4F
:10344000E0E8FEEF16161706E807F907C0F01216B7
:103450001306E407F50798F0621B730B840B950BBA
:1034600039F40A2661F0232B242B252B21F408950F
:103470000A2609F4A140A6958FEF811D811D0895AC
:103480000E94531A0C94C71A0E94B91A38F00E946D
:10349000C01A20F0952311F00C94B01A0C94B61AAF
:1034A00011240C94FB1A0E94D81A70F3959FC1F353
:1034B000950F50E0551F629FF001729FBB27F00DE2
:1034C000B11D639FAA27F00DB11DAA1F649F662737
:1034D000B00DA11D661F829F2227B00DA11D621F86
:1034E000739FB00DA11D621F839FA00D611D221F40
:1034F000749F3327A00D611D231F849F600D211D24
:10350000822F762F6A2F11249F5750409AF0F1F0A6
:1035100088234AF0EE0FFF1FBB1F661F771F881F0F
:1035200091505040A9F79E3F510580F00C94B01A7D
:103530000C94FB1A5F3FE4F3983ED4F3869577959D
:103540006795B795F795E7959F5FC1F7FE2B880FB5
:10355000911D9695879597F908959927882708953D
:1035600097F99F6780E870E060E008959FEF80EC36
:10357000089500240A9416161706180609060895D9
:1035800000240A9412161306140605060895092E3F
:103590000394000C11F4882352F0BB0F40F4BF2BAE
:1035A00011F460FF04C06F5F7F4F8F4F9F4F0895EE
:1035B00057FD9058440F551F59F05F3F71F04795E4
:1035C000880F97FB991F61F09F3F79F087950895C9
:1035D000121613061406551FF2CF4695F1DF08C0E8
:1035E000161617061806991FF1CF86957105610505
:1035F00008940895E894BB2766277727CB0197F9AD
:1036000008950E94431BA59F900DB49F900DA49F09
:10361000800D911D112408952F923F924F925F9239
:103620006F927F928F929F92AF92BF92CF92DF92D2
:10363000EF92FF920F931F93CF93DF93CDB7DEB737
:10364000CA1BDB0B0FB6F894DEBF0FBECDBF0994CB
:103650002A88398848885F846E847D848C849B8422
:10366000AA84B984C884DF80EE80FD800C811B8130
:10367000AA81B981CE0FD11D0FB6F894DEBF0FBE5F
:10368000CDBFED010895A29FB001B39FC001A39FDC
:10369000700D811D1124911DB29F700D811D11248B
:1036A000911D08955058BB27AA270E946A1B0C94AD
:1036B000C71A0E94B91A38F00E94C01A20F039F4D3
:1036C0009F3F19F426F40C94B61A0EF4E095E7FB2C
:1036D0000C94B01AE92F0E94D81A58F3BA1762074F
:1036E00073078407950720F079F4A6F50C94FA1A6D
:1036F0000EF4E0950B2EBA2FA02D0B01B90190010D
:103700000C01CA01A0011124FF27591B99F0593F50
:1037100050F4503E68F11A16F040A22F232F342F98
:103720004427585FF3CF469537952795A795F040E6
:103730005395C9F77EF41F16BA0B620B730B840BFB
:10374000BAF09150A1F0FF0FBB1F661F771F881FB3
:10375000C2F70EC0BA0F621F731F841F48F487950B
:1037600077956795B795F7959E3F08F0B0CF9395FD
:10377000880F08F09927EE0F9795879508950E9476
:10378000D31B0C94C71A0E94C01A58F00E94B91A91
:1037900040F029F45F3F29F00C94B01A51110C94B9
:1037A000FB1A0C94B61A0E94D81A68F39923B1F345
:1037B000552391F3951B550BBB27AA276217730757
:1037C000840738F09F5F5F4F220F331F441FAA1FEB
:1037D000A9F335D00E2E3AF0E0E832D091505040A7
:1037E000E695001CCAF72BD0FE2F29D0660F771F55
:1037F000881FBB1F261737074807AB07B0E809F03B
:10380000BB0B802DBF01FF2793585F4F3AF09E3FBF
:10381000510578F00C94B01A0C94FB1A5F3FE4F356
:10382000983ED4F3869577956795B795F7959F5F02
:10383000C9F7880F911D9695879597F90895E1E04E
:10384000660F771F881FBB1F621773078407BA07AD
:1038500020F0621B730B840BBA0BEE1F88F7E09508
:1038600008950E941C1A08F48FEF089516F00C9426
:10387000861C0C94B61A68940C94B01A0E94E01A34
:10388000A8F39923C1F3AEF3DF93CF931F930F9364
:10389000FF92C92FDD2788232AF02197660F771F13
:1038A000881FDAF720E030E040E85FEB9FE38839DB
:1038B00020F0803E38F021968F770E94531BE8E677
:1038C000F0E004C00E94531BE5E9F0E00E94941C64
:1038D0008B01BE01EC01FB2E6F5771097595771FA7
:1038E000880B990B0E94E11928E132E741E35FE37D
:1038F0000E94531AAF2D9801AE01FF900F911F91B6
:10390000CF91DF910E946A1B0C94C71A9F3F31F040
:10391000915020F4879577956795B795880F911DFD
:103920009695879597F90895DF93CF931F930F93FB
:10393000FF92EF92DF927B018C01689406C0DA2E31
:10394000EF010E94531AFE01E894A591259135914B
:1039500045915591A6F3EF010E946A1BFE01970164
:10396000A801DA9469F7DF90EF90FF900F911F9113
:10397000CF91DF91089597FB072E16F4009407D09E
:1039800077FD09D00E94EE1C07FC05D03EF490950F
:1039900081959F4F0895709561957F4F0895052EED
:1039A00097FB1EF400940E94E61C57FD07D00E946E
:1039B000021D07FC03D04EF40C94E61C5095409574
:1039C000309521953F4F4F4F5F4F089590958095CB
:1039D000709561957F4F8F4F9F4F0895AA1BBB1B1A
:1039E00051E107C0AA1FBB1FA617B70710F0A61BFF
:1039F000B70B881F991F5A95A9F780959095BC0120
:103A0000CD010895A1E21A2EAA1BBB1BFD010DC01A
:103A1000AA1FBB1FEE1FFF1FA217B307E407F5077E
:103A200020F0A21BB30BE40BF50B661F771F881F5A
:103A3000991F1A9469F760957095809590959B01F0
:103A4000AC01BD01CF010895EE0FFF1F0590F49169
:103A5000E02D09940F931F93CF93DF93823091054C
:103A600010F482E090E0E0911006F091110630E051
:103A700020E0B0E0A0E0309799F42115310509F479
:103A80004AC0281B390B24303105D8F58A819B8127
:103A90006115710589F1FB0193838283FE0111C0D9
:103AA000408151810281138148175907E0F048177E
:103AB000590799F4109761F012960C931297139688
:103AC0001C933296CF01DF91CF911F910F910895F2
:103AD0000093100610931106F4CF2115310551F013
:103AE0004217530738F0A901DB019A01BD01DF013C
:103AF000F801C1CFEF01F9CF909311068093100622
:103B0000CDCFFE01E20FF31F819391932250310933
:103B100039832883D7CF20910E0630910F06232BAF
:103B200041F4209102013091030130930F0620935C
:103B30000E0620910001309101012115310541F45B
:103B40002DB73EB74091040150910501241B350B60
:103B5000E0910E06F0910F06E217F307A0F42E1B7A
:103B60003F0B2817390778F0AC014E5F5F4F2417E1
:103B7000350748F04E0F5F1F50930F0640930E0617
:103B8000819391939FCFF0E0E0E09CCFCF93DF93C0
:103B90000097E9F0FC01329713821282A09110067F
:103BA000B0911106ED0130E020E01097A1F42081E2
:103BB0003181820F931F20910E0630910F06281736
:103BC000390709F061C0F0930F06E0930E06DF910C
:103BD000CF910895EA01CE17DF07E8F54A815B81AE
:103BE0009E0141155105B1F7E901FB83EA83499133
:103BF0005991C40FD51FEC17FD0761F480819181A5
:103C00000296840F951FE9019983888382819381AD
:103C10009B838A83F0E0E0E012968D919C9113974C
:103C20000097B9F52D913C911197CD010296820F25
:103C3000931F20910E0630910F062817390739F689
:103C4000309751F51092110610921006B0930F069E
:103C5000A0930E06BCCFD383C28340815181840FD1
:103C6000951FC817D90761F44E5F5F4F888199810E
:103C7000480F591F518340838A819B81938382839C
:103C80002115310509F0B0CFF0931106E09310062D
:103C90009ECFFD01DC01C0CF13821282D7CFB0E0EE
:103CA000A0E0E5E5FEE10C940E1B8C01009751F4B9
:103CB000CB010E942A1D8C01C801CDB7DEB7E0E11F
:103CC0000C942A1BFC01E60FF71F9C0122503109BE
:103CD000E217F30708F49DC0D901CD91DC9111974B
:103CE000C617D70798F0C530D10530F3CE01049739
:103CF0008617970708F3C61BD70B2297C193D1935A
:103D00006D937C93CF010E94C61DD6CF5B01AC1A88
:103D1000BD0A4C018C0E9D1EA0911006B09111069B
:103D2000512C412CF12CE12C109731F580910E068D
:103D300090910F068815990509F05CC04616570644
:103D400008F058C08091000190910101009741F462
:103D50008DB79EB74091040150910501841B950BCE
:103D6000E817F90708F055C0F0930F06E0930E0628
:103D7000F90171836083A0CF8D919C911197129668
:103D80006C90129713967C901397A815B90559F566
:103D90006C0142E0C40ED11CCA14DB0420F1AC015A
:103DA0004A195B09DA011296159780F062827382D4
:103DB00051834083D9016D937C93E114F10471F038
:103DC000D7011396FC93EE93129776CF22968C0F21
:103DD0009D1FF90191838083F301EFCFF0931106CA
:103DE000E093100669CF4816590608F42C017D01AE
:103DF000D3019ACFCB010E942A1D7C01009749F084
:103E0000AE01B8010E94141FC8010E94C61D87019F
:103E100053CF10E000E050CF9111089581568A51A0
:103E200008F4805285580895FB01DC0102C001901E
:103E30000D9241505040D8F70895FB01DC010190EC
:103E40000D920020E1F70895FB0151915523A9F04F
:103E5000BF01DC014D9145174111E1F759F4CD0146
:103E60000190002049F04D9140154111C9F3FB012B
:103E70004111EFCF81E090E00197089511E0C5EC8A
:103E8000D1E004C0FE010E94241D2196C63CD1074A
:063E9000C9F7F894FFCF12
:103E9600000012068000000000009102F1011E02DF
:103EA600DE024F022D024102000000002B06F10146
:103EB600B506E9058706980613060D0A00436865E8
:103EC600636B73756D206572726F720054696D65F0
:103ED600206F7574206572726F720053656E736F12
:103EE60072206E6F7420636F6E6E65637465640016
:103EF60041542B434D47533D2200414C41524D3ACC
:103F060020002B37393130353534343332310048DF
:103F1600616C6C0053746F72616765004265645230
:103F26006F6F6D004F7574446F6F720041747469E2
:103F3600630042617468526F6F6D004B6974636809
:103F4600656E004F757473696465476174650048F2
:103F5600616C6C576179004B6E6F636B30004D6F0F
:103F660076653000430054656D7030004B426F61DA
:103F760072643000644200536F756E6430004669A7
:103F86007265300054656D7000250048756D696472
:103F96006974793000536D6F6B6530004154002EA3
:023FA6002000F9
:00000001FF
